:020000040800F2
:10000000E84F0020A9010008572C0008A32500088C
:10001000552C00080D050008A5340008000000005C
:10002000000000000000000000000000692C000833
:100030008D06000800000000592C00086B2C0008F9
:10004000C3010008C3010008C3010008C301000880
:10005000C3010008C3010008C3010008C301000870
:10006000C3010008C3010008C3010008C301000860
:10007000C3010008C3010008C3010008C301000850
:1000800011050008C3010008C301000800000000BA
:10009000000000000000000000000000C301000894
:1000A000C3010008C3010008C3010008C301000820
:1000B000C3010008512D0008C3010008C301000856
:1000C000C3010008C3010008C3010008C301000800
:1000D000C3010008C30100089934000800000000B3
:1000E000C3010008C3010008C301000800000000AC
:1000F000000000000000000000000000C301000834
:1001000000000000C3010008C3010008C30100088B
:1001100000000000000000000000000000000000DF
:100120001D050008C3010008C3010008C301000841
:10013000C3010008000000000000000000000000F3
:10014000000000000000000000000000C3010008E3
:10015000C3010008C3010008C3010008C30100086F
:10016000C3010008C30100080000000000000000F7
:10017000000000000000000000000000000000007F
:1001800000000000C30100080000000000000000A3
:10019000C3010008DFF80CD000F09CF800480047CD
:1001A000293C0008E84F00200648804706480047E1
:1001B000FEE7FEE7FEE7FEE7FEE7FEE7FEE7FEE717
:1001C000FEE7FEE7FD2C0008950100082DE9F05F31
:1001D0000546002092469B468846064681464024B6
:1001E0001BE0284641464746224600F062F8534647
:1001F0005A46C01A914110D311461846224600F0C3
:1002000049F82D1A67EB01084F46224601200021CC
:1002100000F040F817EB00094E41201EA4F1010444
:10022000DFDC484631462A464346BDE8F09F40EAB7
:1002300001039B0703D009E008C9121F08C0042A64
:10024000FAD203E011F8013B00F8013B521EF9D24B
:100250007047D2B201E000F8012B491EFBD2704773
:100260000022F6E710B513460A4604461946FFF782
:10027000F0FF204610BD30B505460020034600E0E3
:100280005B1C934205D2EC5CC85C201A01D1002CA7
:10029000F6D130BD202A04DB203A00FA02F100201A
:1002A00070479140C2F1200320FA03F319439040B4
:1002B0007047202A04DB203A21FA02F0002170471F
:1002C00021FA02F3D040C2F12002914008431946BE
:1002D00070470000064C074D06E0E06840F001035F
:1002E00094E8070098471034AC42F6D3FFF756FF66
:1002F000504900087049000870B58D1810F8014B7E
:1003000014F0030201D110F8012B231106D110F8CB
:10031000013B03E010F8016B01F8016B521EF9D1AB
:10032000ABB110F8012B04F00C048A1A0C2C03D08A
:10033000A2EB84129B1C08E010F8014BA2EB0422F4
:10034000F8E712F8014B01F8014B5B1EF9D5A94201
:10035000D4D3002070BD10B50146806B026C12F042
:10036000500F05D0026CD20626D500F069FB10BDF7
:10037000016C41F40071016401688A6812F0405F09
:1003800017D1027EAAB9CA6A12F4700F02D08A6825
:1003900052050ED44A6822F020024A60016C21F412
:1003A00080710164016CC90403D4016C41F0010146
:1003B000016400F0FBFA10BD806BC26CBDE8104018
:1003C0000846104710B5806B40210164416C41F034
:1003D0000401416400F034FB10BD10B5806B00F0E7
:1003E0000DFB10BD464910B54A6822F440324A6000
:1003F0004A6843681A434A6001684A6822F4807276
:100400004A6001684A68036942EA03224A60016857
:100410004A6822F040724A6001684A6883681A4359
:100420004A6001688A6822F400628A6001688A680A
:10043000C3681A438A60816A6FF07062D1420168B2
:100440008A6822F070628A6001688A680CD0836AC8
:100450001A438A6001688A6822F040528A60016803
:100460008A68C36A1A4301E022F040528A60016838
:100470008A6822F002028A6001688A68037E42EA82
:1004800043028A6090F82010002901684A680FD062
:1004900042F400624A6001684A6822F460424A609D
:1004A00001684A68174C436A04EB43331A4301E07E
:1004B00022F400624A600168CA6A22F47002CA62C9
:1004C0000168CA6A838B104C04EB03531A43CA6257
:1004D00001688A6822F400728A6001688A6890F86C
:1004E000303042EA43228A6001688A6822F48062DE
:1004F0008A6001688A68406942EA8020886010BD8D
:100500000023014000E0FFFF0000F0FFFEE70000D5
:10051000014800F09FBB000064490020014800F042
:1005200099BB00000449002001681823CAB2103AA0
:10053000B2FBF3F2054B6FF30901032A9B5CC36521
:1005400000D9091D81650846704700007345000801
:1005500010B5014600208B698A6A4FF0C07453B110
:10056000B3F5005F15D072B1012A0CD0022A0AD06F
:10057000032A09D104E01AB1012A06D0022A03D1C4
:10058000C96AC90100D5012010BDC96AA142FAD0CB
:1005900010BD002AF7D0012AF2D0022AF3D0032A94
:1005A000F3D010BD30B50468256825F4802525609A
:1005B000046863608368402B036803D09960006817
:1005C000C26030BD9A600068C16030BD70B504463D
:1005D0001078A0605078E06090782061D0786061F9
:1005E0001079A0615079E06190792062D079082378
:1005F00060620020D55C04EB8006401C5B1CB56289
:100600000628F7DB1B4D00204FF4007231F9103043
:1006100000EE103A05EB8003B8EEC00AD3ED000AF5
:1006200020EE200ABDEEC00A10EE103A21F810307C
:10063000401C9042EADB0020258A31F810306B43E1
:1006400021F81030401C9042F6DB204603F048FAB7
:1006500004F5746004F12801054602F043FF2146C9
:10066000284603F0A9FA20602046BDE8704003F058
:100670004BBF00000000002000B500F550714FF4A2
:100680000072403003F0F8F9002000BD7047000010
:10069000074C00224FF48051204600F08CFD0022D0
:1006A000E114204600F087FD012000F049FCFBE743
:1006B00000000240002229B101291AD002291BD0D2
:1006C0004FF440720E490B6823F440730B600B68C3
:1006D00013430B600A6822F0F8020A600A680223DA
:1006E00003EBC00002430A60086840F480300860F1
:1006F00070474FF48072E5E74FF40072E2E70000C4
:10070000103C0240064A136823F4407313601368D8
:100710001360136843F00103136001707047000019
:10072000103C0240084910B50C6824F440740C6079
:100730000C6844F440740C600C6844F001040C60D4
:100740000260436010BD0000103C0240074A13687D
:1007500023F440731360136843F4807313601368C9
:1007600043F001031360018070470000103C024019
:10077000074A136823F440731360136843F400734B
:100780001360136843F001031360016070470000B9
:10079000103C02401C490868C2061C4805D5C269C5
:1007A00042F01002C26110220A600A68920605D562
:1007B000C26942F00802C26120220A600A68520639
:1007C00005D5C26942F00402C26140220A600A688B
:1007D000120605D5C26942F00202C26180220A6097
:1007E0000A68D20506D5C26942F00102C2614FF41F
:1007F00080720A600A68920705D5C26942F0200239
:10080000C2610220086070470C3C0240C4490020CD
:1008100070B5114904460020C86100F0D1FC0646BD
:100820000E4D09E0601C07D024B100F0C9FC801B0C
:10083000A04201D9032070BD2868C003F2D4286803
:10084000C00701D001202860286810F4F970F2D0A8
:10085000FFF7A0FF012070BDC44900200C3C0240FE
:1008600078B50024009490F83C20012A19D0012288
:1008700080F83C200A6807230568092A13D9EE6826
:100880000A3A02EB420293409E43EE600B788A687C
:100890000A3B03EB43039A400368DD682A43DA60AE
:1008A00010E0022078BD2E6902EB420293409E4385
:1008B0002E610B788A6803EB43039A4003681D6935
:1008C0002A431A614A681F23072A13D205686E6BF0
:1008D000521E02EB820293409E436E630B790A889C
:1008E0005B1E92B203EB83039A4003685D6B2A435D
:1008F0005A6327E005680D2A12D22E6BD21F02EB35
:10090000820293409E432E630B790A88DB1F92B2CA
:1009100003EB83039A4003681D6B2A431A6311E0BB
:10092000EE6A0D3A02EB820293409E43EE620B792F
:100930000A880D3B92B203EB83039A400368DD6A99
:100940002A43DA62164B0568144A9D4206D10D68A7
:10095000122D03D1556845F48005556005689D4208
:1009600018D10B68102B01D0112B13D1536843F40D
:1009700000035360096810290CD10A490A4A096822
:10098000B1FBF2F101EB8101490000E0491E009149
:100990000029FBD180F83C40002078BD00230140B5
:1009A000002001403C08002040420F00F0B5114AF1
:1009B000114BF021D06803F5386403F5F0654E0063
:1009C00033F8107004EB410C401CACF8407033F865
:1009D000107005EB410C401C491CACF84070B14252
:1009E000EEDB0020D0601078002801D101201070CB
:1009F000F0BD00001C08002038310020F0B50E4B7F
:100A00000E4A0021D3F80C0002F5386402F5F065B7
:100A100032F8106004EB4107401CA7F8406032F840
:100A2000106005EB4107401C491CA7F84060F02905
:100A3000EEDBD860F0BD00001C080020383100203B
:100A4000704770B504004FF0000503D0206C0026FD
:100A500010B107E0012070BD204600F01DF866646B
:100A600084F83C60206CC00610D4206C20F48850C0
:100A700040F0020020642046FFF7B4FC6664206C5E
:100A800020F0020040F00100206400E0012584F81D
:100A90003C60284670BD000070B586B00646142143
:100AA0006846FFF7DDFB1D493068884233D11C489A
:100AB0000025016841F480710160006800F48070D5
:100AC000059017481438016841F001010160006881
:100AD000694600F00100059003200090CDE9010572
:100AE000104800F09DFA114C0F48C4E900050015AC
:100AF000A560C4E90350400060618000A06140111E
:100B0000C4E907052046656200F074F908B1FFF7F3
:100B1000BFFDB463A66306B070BD000000200140B5
:100B200044380240000002401064024004490020A2
:100B3000F8B50E4600210446009190F83C000128CB
:100B400007D0012084F83C0020688368DB0702D0CE
:100B500011E00220F8BD836843F0010383602D4853
:100B60002D4B0068B0FBF3F000EB400000E0401EAE
:100B700000900028FBD120688368DB0748D0236CF5
:100B800040F20165AB4343F4807323644068400541
:100B900005D5206C20F4005040F480502064206C77
:100BA000C00404D5606C20F00600606400E061645D
:100BB00084F83C10A16B1A48184DC863A16B194802
:100BC0000864A16B1848C86421686FF022000860AF
:100BD0002068416841F0806141602068816841F48B
:100BE000807181602168134632464C31A06B00F061
:100BF0006BF96868C006206802D00C49884207D1AA
:100C0000816811F0405F03D1816841F080418160CB
:100C10000020F8BD3C08002040420F0000230140A6
:100C200057030008DB030008C5030008002001404B
:100C300090F83510022903D08021416501207047CA
:100C4000052180F835100068016821F0010101607C
:100C5000002070472DE9F84304464FF00009CDF815
:100C6000009063484FF41651A56D0068B0FBF1F792
:100C70002E6894F85C10082000FA01F131420FD080
:100C800021680A6852070BD50A6822F004020A603C
:100C900094F85C108840A860606D40F001006065C9
:100CA00094F85C104FF0010808FA01F0304208D0C7
:100CB00021684969090604D5A860606D40F002000A
:100CC000606594F85C1004208840304208D02168A8
:100CD0000968890704D5A860606D40F0040060656C
:100CE00094F85C1010208840304218D021680968C0
:100CF000090714D5A86020680168490304D5006875
:100D0000000308D5A16C07E00168C90503D4016898
:100D100021F008010160216C09B12046884794F850
:100D20005C1020208840304231D021680968C90613
:100D30002DD5A86094F8350005282068016806D0F4
:100D4000490347D5006800031DD4616C1CE021F005
:100D5000160101602068416921F080014161206C29
:100D600008B9A06C20B12068016821F00801016079
:100D700094F85C103F208840A86084F8349084F890
:100D80003580216D1FE0E16B09B120468847606D19
:100D900000282BD0606DC00714D0052084F83500E2
:100DA0002068016821F0010101600098401C00905A
:100DB000B84203D820680068C007F6D184F83490A0
:100DC00084F83580E16C002910D001B02046BDE8E0
:100DD000F04308470168C905D5D4016821F0100126
:100DE000016084F8349084F83580CCE7BDE8F8835E
:100DF0003C0800202DE9F041044600F0E1F90646E8
:100E00005CB1002584F83450022084F83500206855
:100E1000016821F0010101600DE00120BDE8F081D1
:100E200000F0CEF9801B052805D92020606503203D
:100E300084F83500F2E720680068C007F0D1226826
:100E4000116820480140D4E901031843D4E903366E
:100E50003343184363691843A3691843E36918438C
:100E6000236A18430843616A042903D1D4E90B13A8
:100E700019430843106020684069666A20F0070142
:100E800030460E43012704280CD1A06A0643E06ACD
:100E900040B12046FFF75CFB20B14020606584F83C
:100EA0003570BAE7206846612046FFF73DFB94F8AD
:100EB0005C203F2191408160656584F83570002099
:100EC000ACE700003F8010F02DE9F0410446866D4C
:100ED00090F83400002501280DD0012084F834005A
:100EE00094F835700020012F07D084F834000225D3
:100EF0002846BDE8F0810220FBE7022784F8357020
:100F000060652046FFF74EFB94F85C103F20884058
:100F1000B0602068016841F01601016020684169F5
:100F200041F080014161206C20B12068016841F0EE
:100F3000080101602068016841F001010160D7E704
:100F400070B5044600F03CF90546601C02D0044828
:100F50000078044400F034F9401BA042FAD370BD7D
:100F6000300800200348016841F000410160002082
:100F700070470000103C02402DE9F0471B4E05462B
:100F80001446307E1F468946012808D0012030765D
:100F90004CF250384046FFF73BFC18B114E00220F9
:100FA000BDE8F0879DB1012D16D0022D19D0224643
:100FB0003B464846FFF7B6FB4046FFF729FC0C4985
:100FC0000A6822F001020A6000213176E8E7E1B206
:100FD0004846FFF797FBEFE7A1B24846FFF7B6FB9D
:100FE000EAE721464846FFF7C3FBE5E7C44900208E
:100FF000103C0240074900200A68002A09DA054A25
:10100000054B0C3A1360054B13600968002900DAA0
:1010100001207047103C024023016745AB89EFCDAA
:101020002DE9F84FDFF860B100224FF001084FF0D2
:10103000030A4FF00F090BF1040E00BF0B6808FA0A
:1010400002F42340A3426ED14D68022D01D0122D2F
:101050000ED1D50800EB850CDCF820505607F70EB2
:1010600009FA07F6B5430E69BE402E43CCF820605E
:10107000066855000F790AFA05FC07F0030726EA0F
:101080000C06AF40374307604E68012E05D0022E94
:1010900003D0112E01D0122E0ED18668CF6826EA19
:1010A0000C06AF40374387604668A6430C79C4F30B
:1010B0000014944034434460C6688C6826EA0C06E9
:1010C000AC403443C4604C68E40056D52F4C2568CE
:1010D00045F480452560246822F0030504F480442B
:1010E00000942B4C2E19D6F8084895072F0F09FAB3
:1010F00007F5AC43274DA84201D1002515E0264D48
:10110000A84201D1012510E0244DA84201D10225B9
:101110000BE0234DA84201D1032506E0214DA84252
:1011200002D1042501E028E00725BD402543C6F88B
:101130000858DBF800405D464E689C43F60300D536
:101140001C432C60DEF8004075464E689C43B60395
:1011500000D51C432C600C4D08352C684E689C4310
:10116000F60200D51C432C60074D0C352C684E68E8
:101170009C43B60200D51C432C60521C102AFFF47D
:101180005DAFBDE8F88F0000003C014044380240EC
:10119000003001400000024000040240000802400C
:1011A000000C024000100240426931EA020200D104
:1011B0000904816170470AB1816170470904FBE746
:1011C00001488068704700003008002070B50400B6
:1011D0001BD094F83D00002520B984F83C502046EF
:1011E00000F042FA242084F83D002068016821F0D4
:1011F0000101016000F0CCFB4D4A6168914201D8C9
:101200004C4900E04C49884201D2012070BD4B4955
:101210002368B0FBF1F15E6826F03F060E435E6086
:101220006368934206D94FF4967359434FF47A7327
:10123000B1FBF3F12368491C1E6A26F03F063143D7
:1012400019626168914210D84900401EB0FBF1F26A
:10125000521CC2F30B02042A01D2042022E0B0FB8C
:10126000F1F0401CC0F30B001CE0A368F3B301EBEA
:10127000C10202EB0116421EB2FBF6F2521C42F40E
:101280008042120549D093B301EBC10202EB011178
:10129000401EB0FBF1F0401CC0F30B0040F4804056
:1012A00040F400402168CA694CF6FF739A4310432A
:1012B000C861D4E90701084321680A6822F0C00226
:1012C00010430860D4E9030101432068826848F2B2
:1012D000FF339A4311438160D4E905010843216833
:1012E000CA6822F0FF021043C86001E00EE016E079
:1012F0002068016841F0010101602564202084F824
:101300003D00256384F83E50002070BD01EB41068E
:10131000421EB2FBF6F2521CB3E70120C2E701EB1A
:101320004101401EB0FBF1F0401CC0F30B00B7E7D9
:10133000A086010080841E0000093D0040420F008D
:101340002DE9FF4F83B09A46DDE911979346044695
:10135000DDF84080FFF734FF054694F83D00202873
:1013600070D11923012271492046009501F03CFA01
:101370000028F5D194F83C00012863D0012084F8BE
:101380003C0020680168C90703D1016841F00101F0
:1013900001602068016821F400610160222084F866
:1013A0003D00402084F83E0000262664C4F82480D6
:1013B000A4F82A90608D20855D48E062CDE9007533
:1013C00053465A462046049901F02BF900287CD157
:1013D000208DD0B1012821D00228206824D0416975
:1013E00080690090208D032869D801282BD05149AD
:1013F00002283B464FF00002009559D0884620460F
:1014000001F0F2F9002860D13CE02068416981696F
:101410000091016841F40071016077E02068016883
:1014200021F480610160F0E7016821F480610160CE
:101430002068016841F400610160206841698069A9
:10144000009063E06FE02A463946204601F04BFAEF
:1014500098BB20680069616A08704EE020680168E6
:1014600041F40071016020680069616A0870606A77
:10147000401C6062218D491E2185618D491E618558
:10148000216838E02068016821F4806101602068EB
:101490000069616A0870606A401C6062208D401EAD
:1014A0002085608D401E60853B46002241460095A8
:1014B000204601F099F900B9D0E706E0FFE72A4697
:1014C0003946204601F00FFA18B1012007B0BDE8F7
:1014D000F08F20680069616A0870606A401C606271
:1014E000218D491E2185618D491E618521684A69CA
:1014F000D24352070AD409690170606A401C6062D5
:10150000208D401E2085608D401E6085208D002826
:101510007FF468AF202084F83D0084F83E6084F8B2
:101520003C600020D2E70220D0E70000020010005B
:101530000000FFFF040001002DE9FF4F83B09A4631
:10154000DDE9119793460446DDF84080FFF738FE49
:10155000054694F83D0020287FD1192301224049F7
:101560002046009501F040F9002876D194F83C001F
:10157000012872D0012084F83C0020680168C90766
:1015800003D1016841F0010101602068016821F484
:1015900000610160212084F83D00402084F83E0075
:1015A00000262664C4F82480A4F82A90608D208543
:1015B0002C48E062CDE9007553465A46204604990E
:1015C00001F0A2F870B930E02A463946204601F011
:1015D000BDF958B1206C042804D12068016841F499
:1015E00000710160012007B0BDE8F08F606A2168DA
:1015F00000780861606A401C6062218D491E89B2D2
:101600002185628D521E628522685369DB435B0728
:101610000BD469B100781061606A401C6062208D53
:10162000401E2085608D401E6085208D0028CBD116
:101630002A463946204601F0B1F80028CAD154F8AC
:101640003D0B016841F400710160202004F81E097F
:10165000E67766770020C6E7FFE70220C3E70000D1
:10166000020010000000FFFF2DE9F04387B00446A0
:1016700014216846FEF7F4FD2268294C274B00250B
:10168000274912260327274810344FF004089A42AE
:1016900018D10A6842F002020A60096802AA01F041
:1016A000020105913902CDE9001682E8A0016946E0
:1016B000FFF7B6FC206840F400102060206800F4BA
:1016C000001027E0184B9A4225D10A6842F0020226
:1016D0000A600968029501F0020105910821CDE92F
:1016E00000160921CDE9037169468146FFF798FC90
:1016F0004FF48060CDE9000602AA694682E8A001A5
:101700004846FFF78DFC206840F480002060206888
:1017100000F48000059007B0BDE8F083005400405D
:1017200030380240000402400058004002488168FE
:101730000278114481607047300800200B4810B5D2
:10174000016841F400710160016841F48061016049
:10175000016841F480710160032000F06FF80020FF
:1017600000F006F800F024F8002010BD003C024014
:1017700070B50D4D04464FF47A712878B1FBF0F046
:101780000A490968B1FBF0F000F0E2FA48B9102C00
:1017900007D200222146501E00F030F800206C6075
:1017A00070BD012070BD0000300800203C08002002
:1017B0000A4808B5016841F480410160006800F4FE
:1017C000804000900548001F016841F08051016091
:1017D000006800F08050009008BD000044380240CE
:1017E000002809DB00F01F02012191404009800020
:1017F00000F1E020C0F8001170470000F0B40E4B7B
:101800001B680C46C3F30223C3F10705042D00D95E
:101810000425191D072901D2002300E0DB1E012643
:1018200006FA05F1491E214099409E40761E164059
:101830003143F0BC01F037BE0CED00E0064900F08A
:10184000070208684FF6FF03184040EA0220034AE7
:1018500010430860704700000CED00E00000FA053E
:101860002DE9F0470E46050065D0DFF81481D8F861
:101870000000F7B200F00F00B04207D288F8007005
:10188000D8F8000000F00F00B04254D128683D4C59
:10189000810712D5400703D5206840F4E05020604E
:1018A0002878000703D5206840F460402060206855
:1018B000A96820F0F000084320602878C0072DD0E8
:1018C000304968680839012812D0022813D003284B
:1018D00011D00968890700292DDA216821F0030158
:1018E00001432160FFF76CFC814641F2883A0EE02B
:1018F00009688903EFE709688901ECE7FFF760FCF5
:10190000A0EB0901514502D90320BDE8F08720680A
:10191000696800F00C00B0EB810FEFD1D8F800102F
:10192000404601F00F01B14207D90770006800F08E
:101930000F00B04201D00120E7E72878400705D525
:101940002068E96820F4E050084320602878000708
:1019500006D52068296920F4604040EAC100206073
:1019600000F036F82168084AC1F30311515CC84001
:10197000064908600020FFF7FBFE0020C5E70000D5
:10198000003C0240083802407B4500083C0800202B
:101990000448054900680968044AC1F38221515C82
:1019A000C84070473C080020083802408B450008BA
:1019B0000448054900680968044AC1F34231515C92
:1019C000C84070473C080020083802408B4500089A
:1019D000154810B5006810F00C02144813D01449D3
:1019E000042A0FD0082A0ED10F4C241F2268236826
:1019F00002F03F025B0207D52068C0F38810A0FB0D
:101A0000010106E0084610BD2168C1F38811A1FB61
:101A100000010023FEF7DAFB2168C1F30141491CF4
:101A20004900B0FBF1F010BD083802400024F4007A
:101A300040787D012DE9F84F050076D02878DFF851
:101A4000F8B2BE4CC00749D0DBF800105846C1F3CD
:101A50008101012908D00068C0F3810002280AD161
:101A6000201D0068400206D52068800336D56868CE
:101A70000028E2D032E06868B0F5803F10D0B0F5C1
:101A8000A02F206810D020F480302060206820F43F
:101A9000802020606868A0B1FFF792FB06460CE04A
:101AA000206840F48030F4E740F480202060F7E7BD
:101AB000FFF786FB801B642873D820688003F7D566
:101AC0000CE0FFF77DFB064605E000BFFFF778FB63
:101AD000801B6428F0D820688003F7D42878DFF8CA
:101AE000608280074FF000093ED5DBF800105846B1
:101AF00011F00C0F09D00068C0F3810002280BD14F
:101B00008D48001F0068400206D42068800715D564
:101B1000E868012809D111E0E868B8B10120C8F8E7
:101B20000000FFF74DFB064605E002E1FFF748FB2A
:101B3000801B0228C0D820688007F7D52068296953
:101B400020F0F80040EAC10020600DE0C8F80090E5
:101B5000FFF736FB064604E0FFF732FB801B022846
:101B60001FD820688007F7D42878000722D5724E46
:101B7000744869696C3671B101210160FFF720FB7F
:101B8000074604E0FFF71CFBC01B022809D8306899
:101B90008007F7D50EE0C0F80090FFF711FB07466D
:101BA00005E083E0FFF70CFBC01B02287ED83068FD
:101BB0008007F7D42878400768D5DFF87CA1002794
:101BC0000AF1380ADAF80000C0000BD4DAF8001085
:101BD00041F08051CAF80010DAF80000012700F047
:101BE00080500090584E3068C00510D4306840F4E2
:101BF00080703060FFF7E4FA009005E0FFF7E0FA4C
:101C00000099401A022851D83068C005F6D54A4ECE
:101C1000A868683601280FD00528306810D020F059
:101C200001003060306820F004003060A868B8B16E
:101C3000FFF7C6FA00900FE0306840F00100F4E7CB
:101C400040F004003060F7E7FFF7BAFA0099411A54
:101C500041F28830814264D830688007F4D50EE0C4
:101C6000FFF7AEFA009007E0FFF7AAFA0099411AD1
:101C700041F28830814254D830688007F4D42FB1C3
:101C8000DAF8001021F08051CAF80010A869C0B33A
:101C9000DBF80010C1F3810102294AD0022848462E
:101CA00007D0C8F86000FFF78BFA00E039E005467E
:101CB0003AE04746C8F86000FFF782FA064604E0BB
:101CC000FFF77EFA801B02282BD820688001F7D40A
:101CD000D5E907010843A96A1C4A490802EB0141FA
:101CE0006A6A41EA8211084395F82C1040EA0161C2
:101CF0001148001F016001203866FFF761FA0546B0
:101D000005E014E0FFF75CFA401B022809D82068C0
:101D10008001F7D50BE000BFFFF752FA401B022805
:101D200002D90320BDE8F88F20688001F4D4002098
:101D3000F8E70120F6E700000838024000380240CA
:101D400000004742800E4742007000400000FFFF45
:101D500010B5401EB0F1807F01D3012010BD4FF0BF
:101D6000E02460610F21601701F09DFB0020A0615D
:101D700007202061002010BD7047704770B590F8B3
:101D80003C20012A19D0012400F83C4F0222427065
:101D900050F83C3C5A689D6822F070060A68496811
:101DA000324325F0800529435A6050F83C2C91605D
:101DB000447000210170084670BD022070BD10B54E
:101DC000040003D094F83D0010B107E0012010BDDD
:101DD000002084F83C00204600F00CF8022084F833
:101DE0003D00211D206800F0B9FF012084F83D006E
:101DF000002010BD08B501681048B1F1804F14D023
:101E00000F4A914219D1016841F002010160006856
:101E1000002200F00200009011461D20FFF7EEFCAA
:101E2000BDE808401D20FFF7DBBC016841F001015F
:101E30000160006800F00100009008BD40380240D9
:101E400000040040022180F83D1001688A6802F019
:101E50000702062A03D00A6842F001020A60012143
:101E600080F83D10002070470168CA6842F0010206
:101E7000CA600068816801F00701062903D0016883
:101E800041F0010101600020704770B5044690F8F0
:101E90003C00012817D0012584F83C50022084F82A
:101EA0003D002068826822F0770222F47F4282603F
:101EB0000868502830D00DDC20284DD005DC98B3C0
:101EC00010283BD148E0022070BD302844D0402883
:101ED00034D139E0602828D0702806D0B0F5805F72
:101EE0002CD0B0F5005F29D10AE0CB68D1E90121FF
:101EF000206800F08CFF2068816841F0770109E0DC
:101F0000CB68D1E90121206800F081FF2068816859
:101F100041F48041816011E0CA684968206801F09D
:101F20002BF85021206807E016E0CA68496820684D
:101F300001F033F86021206800F073FF84F83D5011
:101F4000002084F83C0070BDCA684968206801F030
:101F500013F840212068EFE7226801461046EBE7BE
:101F6000704770B50446006801694FF00005C94329
:101F7000890715D4C168C943890711D4E91E0161D5
:101F800001202077206880698007204602D0FFF773
:101F9000E7FF04E000F0C4F8204600F02BF92577B5
:101FA00020680169C943490717D4C168C943490773
:101FB00013D46FF00401016102202077206880694A
:101FC00010F4407F204602D0FFF7CAFF04E000F083
:101FD000A7F8204600F00EF9257720680169C9436B
:101FE000090716D4C168C943090712D46FF0080164
:101FF0000161042020772068C0698007204602D054
:10200000FFF7AEFF04E000F08BF8204600F0F2F896
:10201000257720680169C943C90617D4C168C94337
:10202000C90613D46FF010010161082020772068E1
:10203000C06910F4407F204602D0FFF791FF04E012
:1020400000F06EF8204600F0D5F825772068016989
:10205000C943C90708D1C168C943C90704D1891E4A
:102060000161204600F0C8F820680169C9430906EB
:1020700009D4C168C943090605D46FF08001016124
:102080002046FFF779FE20680169C943490609D453
:10209000C168C943490605D46FF04001016120467B
:1020A00000F0B8F820680169C94389060BD4C168FB
:1020B000C943890607D46FF0200101612046BDE8BD
:1020C0007040FFF75ABE70BD70B5044690F83C00F2
:1020D00001280DD0012584F83C50022084F83D00F1
:1020E00042B1042A0AD0082A0CD00C2A11D10DE0E2
:1020F000022070BD206800F09DFE0AE0206800F01C
:10210000C1FE06E0206800F0E9FE02E0206800F071
:1021100011FF84F83D50002084F83C0070BD0000A1
:1021200010B50068084988420CD1084C811401227E
:102130002046FFF740F820460122BDE81040D102BA
:10214000FFF739B810BD0000000400400000024055
:1021500010B5040003D094F83D0010B107E0012051
:1021600010BD002084F83C00204600F00CF802204E
:1021700084F83D00211D206800F0F0FD012084F866
:102180003D00002010BD704710B50268044631B113
:10219000042908D0082922D00C2908D123E0D068CE
:1021A00040F0020002E0D06840F00400D06001225C
:1021B000206800F01FFE0E492068884203D1416C60
:1021C00041F4004141642068816801F0070106295B
:1021D00003D0016841F001010160002010BDD0680A
:1021E00040F00800E2E7D06840F01000DEE70000B1
:1021F000000001407047000000680449884204D193
:10220000002281140248FEF7D6BF70470004004048
:10221000000002407047704770B5026804461068BD
:10222000D168536910F00F0F50D003F0010501F48D
:10223000907635435DD0C20705D0CA0503D5E26B61
:1022400042F00102E263420705D5DA0703D0E26BF0
:1022500042F00202E263820705D5DA0703D0E26B9F
:1022600042F00402E263020705D5DA0703D0E26B0D
:1022700042F00802E263E26B002A33D0800604D504
:10228000880602D5204600F001FF20684069E16B16
:10229000C0F38010090700D428B3204600F0DFFE09
:1022A0002068416949061AD5416921F04001416120
:1022B000606BA0B11B490165606BFEF7B9FC00289B
:1022C00010D0606B016DBDE870400847830610D5E3
:1022D0008B060ED52046BDE8704000F0D7BE2046E4
:1022E000FFF799FF70BD2046FFF795FF0020E063E0
:1022F00070BD030606D50B0604D52046BDE8704028
:1023000001F066B84006F3D54806F1D5D1682046FD
:1023100021F04001D160202184F8391000F040F90B
:1023200070BD0000BF2F000870B5040004D094F801
:102330003900002510B106E0012070BD84F8385046
:10234000204600F023F8242084F839002068C16872
:1023500021F40051C160204600F0E4FE20680169CC
:1023600021F4904101612068416921F02A01416115
:102370002068C16841F40051C160E563202084F801
:10238000390084F83A00002070BD000070B586B0B6
:10239000064614216846FDF763FF244930688842E9
:1023A00041D123480025016841F4003101600068F3
:1023B00000F4003005901E481038016841F001011A
:1023C00001600068694600F0010005900C20009053
:1023D0000220019001200290032003900720049026
:1023E0001448FEF71DFE154C134820604FF00060A6
:1023F000C4E901054014C4E9035080106561C4E9D3
:102400000650256220466562FEF7F4FC08B1FEF72F
:102410003FF97463002211462620A663FFF7EEF908
:102420002620FFF7DDF906B070BD00000044004033
:1024300040380240000002408860024064490020A9
:10244000F8B5044690F83A0020283CD1C1B3BAB39D
:1024500094F83800012836D0012084F83800A162B1
:10246000A2850025E563222084F83A00636B1748B3
:10247000D863636B16481864636B1648D864606B46
:10248000134605650846666B216802463046091DFD
:10249000FEF71AFD206801684168009184F8385001
:1024A000C16841F48071C1602068416941F0010157
:1024B00041612068416941F0400141610020F8BD5F
:1024C000FFE70120FBE70220F9E7000019300008D0
:1024D00055300008CF2F000801490120487070478F
:1024E0001C08002070472DE9F843044690F8390095
:1024F0001F4616460D46202850D1A5B19EB194F82E
:10250000380001284AD0012084F838004FF0000834
:10251000C4F83C80212084F83900FEF751FEA684DF
:102520008146E68426E00120BDE8F883E08C401E69
:10253000E084A0684B46B0F5805F4FF000024FF09A
:1025400080012046009703D000F073FFE8B90DE04A
:1025500000F06FFFC8B928882168C0F30800486000
:10256000206908B16D1C05E0AD1C03E0216815F879
:10257000010B4860E08C0028D8D14B460022402156
:102580002046009700F055FF08B10320CCE720203B
:1025900084F8390084F838800020C5E70220C3E7BA
:1025A0007047FEE713460A460146014801F028B984
:1025B000D02F00200A460146014801F050B9000022
:1025C000D02F002013460A460146014801F072B997
:1025D000D02F00200A460146014801F040B9000012
:1025E0002430002013460A460146014801F062B932
:1025F0002430002001684A69D24352050FD46FF499
:1026000080624A61002140F8301F202242738173AA
:10261000026942F004020261017301207047002048
:1026200070472DE9F84F0446006889460B9D016804
:102630009846174641F4806101602068016841F4C2
:102640008071016000954FF0011A0022514620462A
:102650000A9B00F0C9F8002853D1216809F0FE0058
:1026600008610AF1010B2B46594620460A9A00F0F0
:10267000EFF8F0BB20684169806900902A46204647
:102680000A9900F063F940B1206C042839D1206820
:10269000016841F40071016033E0FEB2B8F1010F4E
:1026A00009D02168380A08612A4620460A9900F0B4
:1026B0004DF90028E8D1206806612A4620460A998B
:1026C00000F044F90028DFD12068016841F48071EE
:1026D000016000950022514620460A9B00F084F8D4
:1026E00038B9216809F0FF0040F0010008612B466D
:1026F00000E006E0594620460A9A00F0A9F80028B2
:1027000000D00120BDE8F88F2DE9F84304460068A9
:102710000D46DDE9089701689846164641F4807138
:1027200001604B4600224FF001112046009700F057
:102730005BF8E0B9216805F0FE0008613B464A46B7
:102740001549204600F084F888B9206841698069FD
:1027500000903A464946204600F0F8F850B1206C07
:10276000042804D12068016841F40071016001204F
:10277000BDE8F883F5B2B8F1010F09D02168300A3D
:1027800008613A464946204600F0E0F80028E6D1C4
:10279000206805610020EBE70200010070B51646D5
:1027A0000D4604460DE02046FFF724FF08B1012046
:1027B00070BD681C05D0FEF703FD801BA84207D83A
:1027C00035B120684069C0434007ECD4002070BD9B
:1027D000002044F8300F20216173A073216941F07B
:1027E000200121612073E2E72DE9F0471E46904663
:1027F0000D460446C1F30747DDF8209008E0701C41
:1028000006D0FEF7DDFCA0EB0900B0420FD876B190
:102810002068012F18D0806925EA00000004000C10
:1028200014D000214145EAD00020BDE8F087002007
:1028300044F8300F20216173A073216941F0200119
:10284000216120730120F0E74069E5E70121E9E714
:102850002DE9F0479A4691460E46044600254FF072
:102860002008C1F3074725E020684069C0434005C0
:1028700014D42068016841F40071016021686FF48C
:1028800080604861256384F83D8084F83E50206C68
:1028900040F00400206484F83C501FE0B9F1FF3F91
:1028A00008D0FEF78DFCA0EB0A0149450CD8B9F120
:1028B000000F09D02068012F13D0806926EA00009C
:1028C0000004000C0BD0CFE744F8305F84F80D8093
:1028D000A573206940F02000206125730120BDE828
:1028E000F0874069EAE72DE9F041002590460E4661
:1028F0000446202717E04069C043C0060CD454F8B2
:10290000301B6FF01000486144F810596777A577C5
:10291000206A2062257717E0FEF752FCA0EB080042
:10292000B04208D83EB120684169C9434906E2D4A3
:102930000020BDE8F08144F8305F6773A57320691B
:1029400040F02000206125730120F2E770B51646A3
:102950000D4604460DE02046FFF74CFE08B101206D
:1029600070BD681C05D0FEF72BFC801BA84207D861
:1029700035B120684069C0430006ECD4002070BD2A
:10298000002044F8300F20216173A073216941F0C9
:10299000200121612073E2E77FB5002518480095EA
:1029A0000195029515490395C0E90015012485603C
:1029B0000461057680F820502107C1620226C661B5
:1029C0004FF0C061C560816280F830404461FEF71D
:1029D00038F878B9CDE90054694609480294FDF702
:1029E0003FFF38B9CDE9004669460548FDF738FF95
:1029F000002801D0FDF74CFE7FBD00000020014003
:102A0000882F00202DE9F04186B014216846FDF79B
:102A100027FC34480024016841F00101016001688D
:102A200001F001010591016841F0020101600168B6
:102A300001F002010591016841F0040101600168A3
:102A400001F004010591016841F080010160006816
:102A5000254F00F080004FF4C0560590002231460B
:102A60003846FEF7A8FBDFF884800022C0214046EC
:102A7000FEF7A1FB48F2F0700325CDE90005694699
:102A800002943846FEF7CCFA4FF23700CDE9000544
:102A9000694602944046FEF7C3FA00960126CDE946
:102AA0000164694638460394FEF7BAFAC0200090E4
:102AB000CDE90164694640460394FEF7B1FA4FF44C
:102AC0006040CDE90005694602940948FEF7A8FA7E
:102AD0000095CDE9015469460648FEF7A1FA06B013
:102AE000BDE8F0813038024000000240000402409E
:102AF00000080240001C02400C4810B50A49016061
:102B00000B49416000214FF480428160C0E903120B
:102B100041618161C1610162FEF758FB002801D06B
:102B2000FDF7B6FD10BD000000540040D02F00207E
:102B3000801A06000C4810B50A4901600B49416033
:102B400000214FF480428160C0E90312416181613C
:102B5000C1610162FEF73AFB002801D0FDF798FD44
:102B600010BD00000058004024300020801A0600EC
:102B700010B586B000241448009401940294039484
:102B800004944FF080410594C0E9001440F2E14103
:102B9000C0E9024104618461FFF711F980B94FF483
:102BA0008050009069460848FFF76FF940B920202F
:102BB000CDE9040404A90448FFF7E0F8002801D097
:102BC000FDF766FD06B010BD7830002030B58DB041
:102BD00000240794089409940A940B941C216846D5
:102BE0000C94FDF73DFB1A48184940F2FF75C0E907
:102BF000001547F6FF71C0E902414FF4007184618E
:102C00000161FFF7DCF8E8B94FF48050079007A99D
:102C10000F48FFF73AF9A8B90D48FFF799FA88B9B4
:102C20000B940BA90A480C94FFF7A8F850B9CDE90A
:102C3000004502940022694605480494FFF744FACF
:102C4000002801D0FDF724FD0DB030BD0004004088
:102C5000B8300020FEE7704770474A1E01239340BA
:102C60001844084100B270477047FEF75FBD00008E
:102C700030B593B030216846FDF7F2FA14210CA864
:102C8000FDF7EEFA1B480024016841F08051016015
:102C9000006800F0805011901748016821F440410D
:102CA00041F4004101600068022500F440401190A9
:102CB0000120039010200490009506950820CDE98E
:102CC00007403C20099004200A900B906846FEF7CC
:102CD000B1FE58B90F200C90CDE90D540F9400218E
:102CE0000CA81094FEF7BCFD002801D0FDF7D0FC25
:102CF00013B030BD403802400070004010480168F9
:102D000041F4700101600F48016841F00101016068
:102D10000C4A00210832116002680B4B1A40026015
:102D2000031D0A4A1A60026822F4802202600548E4
:102D30000C30016002495806803908607047000075
:102D400088ED00E000380240FFFFF6FE103000245E
:102D50000148FFF706B90000B8300020F0B502685E
:102D60001D4B1E4C9F031E4D1E4E984207D0B8426D
:102D700005D0A04203D0A84201D0B04204D122F035
:102D8000700C4A6842EA0C02984210D0B8420ED049
:102D9000A0420CD0A8420AD0B04208D0124CA042A7
:102DA00005D0124CA04202D0114CA04203D122F413
:102DB0004074CA6822434C6922F0800222430260B8
:102DC0008A68C2620A688262984201D10969016315
:102DD00001214161F0BD00000000014000040040FD
:102DE00000080040000C0040004001400044014049
:102DF0000048014010B501F01F030121046A994009
:102E00008C430462016A9A401143016210BD10B5FF
:102E1000846842EA032224F47F440A432243826006
:102E200010BD826822F070020A4342F007018160FF
:102E30007047000030B5026A22F001020262026AA5
:102E40004368846924F073050C682C4322F0020562
:102E50008A682A430A4DA8420BD122F00805CA68A5
:102E600023F440732A434D6922F004021D438B6909
:102E70002B434360846149684163026230BD0000B6
:102E80000000014030B5026A22F010020262026ABC
:102E9000436884690D6824F4E64444EA05248D6897
:102EA00022F0200242EA05120B4DA8420ED1CD6855
:102EB00022F0800242EA05124D6923F4406343EA9E
:102EC00085038D6922F0400243EA850343608461F3
:102ED00049688163026230BD0000014030B5026A7A
:102EE00022F480720262036A4268C46923F40073A8
:102EF00024F073050C682C438D6843EA05230C4DC0
:102F0000A8420ED1CD6823F4006343EA05234D693E
:102F100022F4405242EA05128D6923F4806342EAAA
:102F200005124260C4614968C163036230BD00009C
:102F30000000014030B5026A22F480520262046A45
:102F40004268C3690D6823F4E64343EA05238D68AC
:102F500024F4005444EA0534064DA84204D14D69D6
:102F600022F4804242EA85124260C36149680164EA
:102F7000046230BD0000014010B5036A046A24F009
:102F800001040462846924F0F00444EA021423F08A
:102F90000A020A438461026210BD10B5036A23F07D
:102FA000100303628369046A23F4704343EA023224
:102FB00024F0A00343EA01118261016210BD10B543
:102FC000806B0021C185C184FFF725F910BD70B564
:102FD000846B2068406994F83910C0F3C010002554
:102FE000212904D118B1E584204600F046F8206874
:102FF000406994F83A10C0F38010222904D118B126
:10300000E585204600F02BF8E06B40F01000E0630F
:103010002046FFF700F970BD10B50146806B0968C6
:103020000968C90513D40021C1850168CA6822F462
:103030008072CA6001684A6922F001024A6101682F
:103040004A6922F040024A61202180F83A10FFF7D5
:1030500043FA10BD10B5806BFFF744FA10BD01684C
:10306000CA6822F49072CA6001684A6922F00102BB
:103070004A61202180F83A1070470168CA6822F03E
:10308000C002CA60202180F83910704710B590F84E
:103090003A10222901D0022010BD8168B1F5805F6D
:1030A00011D00169002901681FD0496801F07F0330
:1030B000816A4A1C82620B70C18D491E0904090C89
:1030C000C18518D02BE00269816A002A0268526823
:1030D00005D0D2B20A80816A491C8162ECE7C2F352
:1030E00008020A80816A891CF7E74A68816A4B1CDA
:1030F00083620A70E0E70168CA6822F02002CA60B1
:103100000168CA6822F48072CA6001684A6922F0C4
:1031100001024A61202180F83A10FFF7DDF9002012
:1031200010BD00002DE9F041044600680169E26825
:1031300021F44051114301612169A068E26908430B
:103140006169114322680843D16849F20C639943CD
:103150000143D16020684169A26921F440711143A3
:103160004161E2696425B2F5004F974897492268AA
:103170004FF032083FD08A4201D082427CD1FEF724
:1031800017FC00EBC00101EB001061688900B0FB87
:10319000F1F6FEF70DFC00EBC00101EB00106168D9
:1031A0008900B0FBF1F0B0FBF5F06FF01801484377
:1031B00006EB800108EB0110B0FBF5F000F0F00623
:1031C000FEF7F6FB00EBC00101EB0010616889001F
:1031D000B0FBF1F0B0FBF5F006EB0016FEF7E8FBF4
:1031E00000EBC00101EB001061688900B0FBF1F752
:1031F000FEF7DEFBD2E08A4201D082423DD1FEF7EB
:10320000D7FB00EBC00101EB001061684900B0FB87
:10321000F1F0B0FBF5F00601FEF7CAFB00EBC001D0
:1032200001EB001061684900B0FBF1F7FEF7C0FB4D
:1032300000EBC00101EB001061684900B0FBF1F048
:10324000B0FBF5F06FF01801484307EB800108EB85
:10325000C100B0FBF5F000F0F80006EB4006FEF709
:10326000A7FB00EBC00101EB001061684900B0FB57
:10327000F1F7FEF79DFB3CE055E0FEF789FB00EB24
:10328000C00101EB001061684900B0FBF1F0B0FB38
:10329000F5F00601FEF77CFB00EBC00101EB00102E
:1032A00061684900B0FBF1F7FEF772FB00EBC0016B
:1032B00001EB001061684900B0FBF1F0B0FBF5F0E4
:1032C0006FF01801484307EB800108EBC100B0FB29
:1032D000F5F000F0F80006EB4006FEF759FB00EBB6
:1032E000C00101EB001061684900B0FBF1F7FEF787
:1032F0004FFB00EBC00101EB001061684900B0FB1F
:10330000F1F0B0FBF5F06FF01801484307EB8001D6
:1033100008EBC100B0FBF5F000F007002168304475
:103320008860BDE8F081FEF733FB00EBC00101EBE4
:10333000001061688900B0FBF1F6FEF729FB00EB95
:10334000C00101EB001061688900B0FBF1F0B0FB37
:10335000F5F06FF01801484306EB800108EB01100F
:10336000B0FBF5F000F0F006FEF712FB00EBC00139
:1033700001EB001061688900B0FBF1F0B0FBF5F0E3
:1033800006EB0016FEF704FB00EBC00101EB00109A
:1033900061688900B0FBF1F7FEF7FAFA00EBC001B3
:1033A00001EB001061688900B0FBF1F0B0FBF5F0B3
:1033B0006FF01801484307EB800108EB0110B0FBE8
:1033C000F5F000F00F00A9E70014014000100140E3
:1033D00090F83910212901D0022070478168B1F599
:1033E000805F016A0BD04A1C026202680978516052
:1033F000C18C491E0904090CC1840ED017E009884C
:103400000268C1F30801516001690029016A02D014
:10341000491C0162ECE7891CFBE70168CA6822F0DD
:103420008002CA600068C16841F04001C1600020AC
:1034300070472DE9F041984617460E460446069D12
:103440001DE0681C1BD02DB1FDF7BAFEA0EB0800F3
:10345000A84214D92068C16821F4D071C1602068E5
:10346000416921F001014161202084F8390084F88C
:103470003A00002084F838000320BDE8F08120687D
:10348000006836EA000004D00020B842D9D00020FD
:10349000F3E70120F9E700000148FEF7BDBE000098
:1034A000F8300020FEE70907090E002804DB00F1D0
:1034B000E02080F80014704700F00F0000F1E020D9
:1034C00080F8141D704702E008C8121F08C1002AC6
:1034D000FAD170477047002001E001C1121F002A95
:1034E000FBD1704770B500240122046050F82230EF
:1034F0000E681D46803E7343DE1703EB566305EBF3
:10350000E31340F82230521C032AEFDB0EE000BF29
:1035100050F822304E681D46803E7343DE1703EBA1
:10352000566305EBE31340F82230521C052AEFDB0B
:103530000EE000BF50F822308E681D46803E734377
:10354000DE1703EB566305EBE31340F82230521C01
:10355000092AEFDB0EE000BF50F82230CE681D468E
:10356000803E7343DE1703EB566305EBE31340F82D
:103570002230521C122AEFDB0EE000BF50F822303E
:103580000E691D46803E7343DE1703EB566305EB61
:10359000E31340F82230521C232AEFDB0EE000BF79
:1035A00050F822304E691D46803E7343DE1703EB10
:1035B000566305EBE31340F82230521C452AEFDB3B
:1035C00003E000BF40F82240521CFF2AFADD70BD24
:1035D000FF21A0F13002092A01D8D1B20BE0A0F1FD
:1035E0004102052A01D8373804E0A0F16102052A1A
:1035F00001D85738C1B2084670470000F0B51546EB
:103600000E4607465FF0000436F8140010FB00F188
:1036100035F8140010FB001000F068FD47F8240096
:10362000641CFF2CF0DDF0BD70B586B006464FF48B
:103630001F70ADF808003348039033480D4602A9C7
:103640000088C01FADF81000304600F073F901206B
:103650008DF80000BDF80800ADF80200BDF81000BC
:10366000ADF80400A87A694640008DF8060030469F
:1036700000F036F92548BDF810400390244804F5C1
:103680001F74ADF80840008802A9C01FADF81000F3
:10369000304600F04FF902208DF80000BDF8080018
:1036A000ADF80200BDF81000ADF80400A87A8DF85E
:1036B00006006946304600F013F9BDF8100002A973
:1036C0002044ADF808001348039013480088C01F39
:1036D000ADF81000304600F02DF903208DF8000001
:1036E000BDF80800ADF80200BDF81000ADF8040008
:1036F000A87A694640008DF80600304600F0F0F8E0
:1037000006B070BD9A45000894460008234800089A
:103710004C4900089F4600081848000808B50123D6
:103720006A4600F029FA9DF8000008BD08B501219D
:103730008DF800100B466A460C2100F02DFA08BDEA
:1037400070B50C46064655222B492046FCF76FFD06
:103750002A4D012280212846FDF72DFD012240211E
:103760002846FDF728FD3220FDF7EAFB304600F041
:1037700097F80A20FDF7E4FB00213046FFF7CEFF63
:103780002178884201D0FCF783FF01213046FFF702
:10379000C5FF0125E5722A460B21304600F05FF88F
:1037A00025712A460421304600F059F80822E271BA
:1037B0000721304600F053F81922A2720A21304640
:1037C00000F04DF821463046FFF72EFF0220E0734F
:1037D000002020746074A074E07420756075A0757A
:1037E000E07520766076A076E07621463046BDE82A
:1037F000704000F01BB800001E45000800040240A5
:10380000F8B50646100A8DF800001D460C468DF8E6
:10381000012002236A464621304600F0BDF92B46BE
:1038200022464821304600F0A7F9F8BD70B50C4695
:1038300001F10F02054608230F2100F0ADF9042322
:1038400004F117021721284600F0A6F904F11B0223
:103850002846BDE8704001231B2100F09DB908B542
:1038600001238DF800206A4600F096F908BD08B5DE
:1038700001EB81010B0A8DF800308DF801108DF8F5
:10388000022003236A46462100F086F908BD08B5E8
:1038900001238DF800106A460F2100F07DF908BD64
:1038A00008B501218DF800100B466A465F2100F033
:1038B00073F908BDF8B50646100A8DF800001D46DC
:1038C0000C468DF8012002236A464621304600F05E
:1038D00063F92B4622464821304600F05DF9F8BDD9
:1038E0007CB5054608780C4600EB8001091F080AE4
:1038F0008DF800008DF8011002236A464621284603
:1039000000F04AF960880523000A8DF80000A078CD
:103910008DF80100A0886A46000A8DF8020020791F
:103920008DF80300A0798DF804004821284600F0A6
:1039300033F97CBD38B5054608880C46000A8DF879
:10394000000008788DF8010002236A4646212846C7
:1039500000F022F9238948212846626800F01CF90A
:1039600038BD00002DE9FF4F86B00646DDF84CA0BB
:103970000D464FEA6A0000900120019050455FDA41
:10398000009840000590002051E000BF00984FF0E3
:10399000000958444FEAAA085C46049042E00098A7
:1039A00035F91410271836F9140036F91720024497
:1039B000521026F8142035F917200A44521025F821
:1039C000142036F91720801A4010039035F917009B
:1039D000081A40100290089830F81910039811FB4B
:1039E00000F2089830F91810029800FB11200E21FF
:1039F000FFF733F926F81700089830F818100398E5
:103A000011FB00F2089830F81910029810FB012001
:103A10000E21FFF722F925F817000198641C814454
:103A200080440498A042BADC05990BEB0100834660
:103A30005045ABDB009840100090019840009CE797
:103A4000002414E0099830F91400A0420EDD06EBC2
:103A5000400106EB440000F057FB099830F91400D0
:103A600005EB400105EB440000F04EFB641C54459F
:103A7000E8DB0AB0BDE8F08F2DE9F043154681463A
:103A80004FF4804090FBF5F080000E460FFA80F86E
:103A9000002402EB450709E008FB04F000F5804034
:103AA00000B200F0EDFA29F81400641CB4EBA70F83
:103AB000F2DB00206A10308001210CE0002006E0DB
:103AC00036F810304418134426F81430401C88424D
:103AD000F6DB52104900A942F0DBBDE8F08300009C
:103AE00078B5044600204FF4007200BF31F8103062
:103AF00004EB4005401CA5F840379042F6DB0092ED
:103B000004F5346104F5E86004F5507304F14002F3
:103B10000E460546FFF726FF3246294604F5746037
:103B2000BDE87840FFF76ABD10B5002821D0114BE1
:103B30000022001F196803E0814203D80A46496841
:103B40000029F9D152B11368841A9C4204D100684B
:103B500018441060104602E0506000E0186039B16F
:103B600002680B1A934203D10B681A440260496839
:103B7000416010BD400800203EB564258DE82C0052
:103B80000A4600240123B221FDF7DAFB10B1FCF74D
:103B90007FFD641E20463EBD3EB564258DE82C00A9
:103BA0000A4600240123B221FDF7C6FC10B1FCF740
:103BB0006FFD641E20463EBDF0B5012200252B4658
:103BC0002C46CE6905E000BF50F82270521C3B44E1
:103BD000641C9642F8DC93FBF4F301F580545E1903
:103BE000C4F8403300231D460F6A04E050F822C099
:103BF000521C63446D1C9742F8DC93FBF5F3C4F848
:103C000044331E4400252B46496A04E050F82270D4
:103C1000521C3D445B1C9142F8DC95FBF3F0C4F868
:103C200048033044F0BD000008B5FDF787FDFFF7FD
:103C30001FF8FEF7E7FEED480024016841F480011B
:103C40000160016801F480010091016841F40011F4
:103C500001600068224600F4001000902146102008
:103C6000FDF7CCFD1020FDF7BBFD002211463820EA
:103C7000FDF7C4FD3820FDF7B3FDFEF78DFEFEF71E
:103C800077FFFEF7A3FFFEF737FFFEF753FFD94894
:103C9000D74901604FF46121C0E901140C21C460CF
:103CA000C0E904418461C461FEF73EFB08B1FCF742
:103CB000EFFCD14F00224FF480513846FDF77BFADC
:103CC0000022F9143846FDF776FA0A22CB49C94892
:103CD000FEF7B6FBC7494FF470724031A1F5D870BA
:103CE000FCF726FFC3488038FEF7ACF8DFF80CB3CA
:103CF0004B22ABF1400B00218BF800208BF8011018
:103D000001238BF802308BF8031080218BF804100C
:103D100005238BF8053012238BF8063045238BF8EA
:103D2000073058468BF808108BF809108172C17261
:103D30000173417382210175A5214175C8218175E7
:103D4000C275DFF8BC92DFF8BCA20276AE4C8BF8ED
:103D500019200AF5805609F58055A0780528FCD26F
:103D6000DFE800F00345A2F2F00000F02DFB002890
:103D7000A2484FF02001A0F1400032D000F03EFBFD
:103D80009F49A248A839FFF7DBFC9D499F48543959
:103D90005430FFF7D5FC00F053FB28B300F080FB54
:103DA0009A48FFF7C3FC99485430FFF7BFFC94488A
:103DB000FCF762FC9348FCF75FFC8E484038FEF746
:103DC00053F88C4800214038FEF7DEF90122D10279
:103DD0003846FDF7F0F9012211033846FDF7EBF9FB
:103DE0009FE000F0FFFACBE700F0CCFAD8E7834A77
:103DF0008348403AA2F50061D4F80480FCF7E6FB62
:103E00006060B8F1000F484602D04168491C0AE0E2
:103E1000D0E900128A4206DCC2EB02121144CA1732
:103E200001EB12710911754AC9F80410403AA2F564
:103E300080617448D4F80880FCF7C8FB0146A06094
:103E4000B8F1000F22D0DAF80420521CCAF804207E
:103E5000B9F80020B9F80400131AABF80E30BAF81C
:103E600000C0BAF80430ACEB0303ABF81030ABF889
:103E700012206068084354D0207CC00604D44FF45C
:103E800000613846FDF790F902204BE0DAE90003C3
:103E9000834206DCC3EB03131844C31700EB137013
:103EA0000011CAF80400D3E7606878B1D5E9D010F2
:103EB000814217DDD5F84803814201DD032000E08F
:103EC0000120804641465148FFF7E1FCA068E8B177
:103ED000D6E9D010814227DDD6F8480381420EDDB5
:103EE00003200DE0D5F848138842E9DD4FF00208C1
:103EF00099F8082041464548FFF7B9FCE2E7012060
:103F00008046424841465430FFF7C1FC606810B11A
:103F10003E48FFF70BFCA06818B13C485430FFF74F
:103F200005FC0420A07018E7D6F848138842E6DDA7
:103F300036484FF002089AF8082041465430FFF7FF
:103F400096FCDEE70FE0FFE74FF480580022414681
:103F50003846FDF730F929492848403900F000F982
:103F60000122414639E7607818B1002060700320D3
:103F7000D8E720780028D6D02549012001F500682F
:103F8000B1F800C001F58062ACF5006CA8F800C083
:103F9000B2F800C001F54063ACF5006CA3F800C0B6
:103FA0004FF4007E31F810C0ACF5006C28F810C05A
:103FB00032F810C0ACF5006C23F810C0401C7045FE
:103FC000F0DB002001EB4003B3F8C03321F81030E0
:103FD00002EB4003B3F8C03322F81030401C202815
:103FE000F0DB0020207001209CE700003038024008
:103FF00000440040F830002000000240F848002053
:10400000F00800203C1C00201C080020D02F0020BD
:10401000B8380020F0B50B30154D20F00701002412
:10402000144A0FE003688B420BD38B4205D95E1A0A
:1040300043184768C3E9006700E04368136002C0A3
:1040400004E0021D10680028ECD12046002802D1AF
:10405000286808B10020F0BD064A07481060074AEA
:10406000121A22F00702C0E9002401202860D7E7D5
:104070004408002040080020EC490020E84B0020C4
:10408000002801DA414200E00146B1F5804F02DD2F
:10409000C0F5004000B210FB00F101F5005189139A
:1040A0006FF0460211FB02F20D4B03EB420202F5E8
:1040B00000520C4B921312FB013202F500520A4BD4
:1040C000921312FB013101F50051891311FB00F12C
:1040D00001EBC03000F5804040F3CF307047000066
:1040E00000C08A0200C054EB0000441202464FF0A8
:1040F00080410020431840109A4201DBD21A084444
:1041000089100029F6DC704702880B8803800A803A
:1041100070472DE9F04107461D4616468846D81DD2
:10412000FFF778FF47F6141101804780691C8180F2
:1041300004460621002005E08319401C18F80320DE
:104140006254491CA842F7DB002060542046491CF9
:1041500000F010F92046BDE8F041FFF7E5BC000093
:104160002DE9F84F0546007801248A464FF00708EC
:10417000242803D000F03EF8BDE8F88F0026DFF8D1
:1041800070902F1909EB860138460422FCF773F86A
:1041900060B3761C072EF5DB241D285D641CFFF739
:1041A00017FA00018DF80000285D641CFFF710FA73
:1041B0009DF8001008448DF80000285D641CFFF78E
:1041C00007FA00018DF80100285D641CFFF700FA72
:1041D0009DF8011008448DF80100285D2328CBD1FB
:1041E0006A465146404600F00BF8C5E7B046D3E7B3
:1041F00000080020042101A000F0BCB824455200B2
:1042000070B514460D46082845D2DFE800F00409D1
:104210000F131B283740BDE87040002000F03CB869
:10422000207862782A54217801202CE0117802202D
:104230006A5C28E0637812782946BDE87040032064
:10424000FFF767BF20786178284400F0D7F86378DB
:1042500022782946BDE87040042000F041B861781A
:104260002078FEF7A7F961782078FEF7B3F9627835
:104270002178BDE87040052000F04FB800F010F93B
:10428000627821780620BDE8704000F05CB8BDE897
:104290007040FFF7AFBF70BD1FB547F61411ADF802
:1042A0000010ADF802000720ADF8040044208DF89E
:1042B000060057208DF8070037208DF808003920B8
:1042C0008DF8090031208DF80A0034208DF80B009C
:1042D00000208DF80C000D21684600F04BF81FBD42
:1042E00070B506461C46D81DFFF794FE054647F6F6
:1042F000141028806E80601CA880A81D214600F044
:1043000071F8A11D002068542846E11D00F032F824
:104310002846BDE87040FFF707BC0EB547F61413FA
:10432000ADF80030ADF802000320ADF804008DF8C0
:10433000061000208DF808008DF807200921684636
:1043400000F018F80EBD0EB547F61413ADF80030A6
:10435000ADF802000320ADF804008DF8061000202F
:104360008DF808008DF807200921684600F002F852
:104370000EBD00008AB2014664230148FEF7B3B8BF
:10438000F83000202DE9F04140252846FFF742FE95
:10439000002406462F022A462146304600F05EF8E9
:1043A0002A4621463046FEF70DF92A462146304678
:1043B000FEF718F9601984B2BC42ECD33046BDE870
:1043C000F041FFF7B1BB00000120054B0021CA58A6
:1043D000521C01D000207047091D1029F7DB7047DF
:1043E0000080000810B50022034B02E0D45C845426
:1043F000521C8A42FADB10BD008000082DE9F04112
:104400000D460646FCF7F6FD0B49B3200860012176
:104410000220FCF74FF90024084F06E00023325D2C
:10442000E1191846FCF7A8FD641CAC42F6DBBDE8B8
:10443000F041FCF797BD00000C3C024000800008F2
:104440000120054B0021CA58521C01D000207047A2
:10445000091D1029F7DB704700C000084FF44043E6
:10446000194410B58BB2002102E05C5C4454491C35
:104470009142FADB10BD2DE9F04107464FF4404070
:104480000844164685B2002406E000233A5D291947
:104490001846FCF771FD641CB442F6DBBDE8F08100
:1044A0002DE9F0474025FCF7A5FD1549B32008602C
:1044B00001210320FCF7FEF82846FFF7ABFD00249E
:1044C000DFF8409006464FF480582F022A462146D6
:1044D0003046FEF767F82A4621463046FFF7CBFF05
:1044E00041464846FCF760FE601984B2BC42EDD3F9
:1044F0003046FFF719FBBDE8F047FCF733BD00007D
:104500000C3C024000000240D0E900128069891A88
:104510000A38884201DD00207047012070474000C2
:104520000F040100000000FFFF0000000000000079
:104530000000000000000000000000000008000073
:10454000000000000800000000000008000000005B
:104550000000088000000000000008336602000030
:104560000000000000000000380002000000000011
:1045700000000000061016000610160000000000E3
:104580000000000102030406070809000000000102
:104590000203040001027C00F07F03060A0D1013E1
:1045A000171A1D2024272A2D303336393C3F424527
:1045B000484A4D505255575A5C5E60636567696A58
:1045C0006C6E70717374757778797A7B7B7C7D7D86
:1045D0007E7E7F7F7F7F7F7F7F7E7E7D7D7C7B7BFE
:1045E0007A79787775747371706E6C6A69676563D0
:1045F000605E5C5A575552504D4A4845423F3C39DF
:104600003633302D2A2724201D1A1713100D0A06C1
:104610000300FDFAF6F3F0EDE9E6E3E0DCD9D6D3EA
:10462000D0CDCAC7C4C1BEBBB8B6B3B0AEABA9A6E5
:10463000A4A2A09D9B9997969492908F8D8C8B8924
:104640008887868585848383828281818181818137
:104650008182828383848585868788898B8C8D8FF0
:104660009092949697999B9DA0A2A4A6A9ABAEB058
:10467000B3B6B8BBBEC1C4C7CACDD0D3D6D9DCE0AF
:10468000E3E6E9EDF0F3F6FAFD00000000000000BB
:1046900000000000000100000001027C01717F02A7
:1046A0000406080A0C0F11131517191B1E202224CB
:1046B00026282A2C2E30323436383A3C3E404243AB
:1046C0004547494B4C4E505153555658595B5C5ECB
:1046D0005F616264656667696A6B6C6D6E6F70714D
:1046E0007273747576777778797A7A7B7B7C7C7D48
:1046F0007D7D7E7E7E7E7F7F7F7F7F7F7F7F7F7FD2
:104700007E7E7E7E7D7D7C7C7C7B7A7A79797877F3
:1047100076767574737271706F6E6D6C6B696867A5
:1047200066646362605F5D5C5A5957565452514FDC
:104730004D4C4A48464543413F3D3B39373533317F
:104740002F2D2B29272523211F1D1B19161412106D
:104750000E0C0A0705030100FDFBF9F7F5F3F1EE76
:10476000ECEAE8E6E4E2E0DDDBD9D7D5D3D1CFCD82
:10477000CBC9C7C5C3C1C0BEBCBAB8B7B5B3B1B069
:10478000AEACABA9A8A6A4A3A2A09F9D9C9B999800
:10479000979694939291908F8E8D8C8B8B8A89882B
:1047A00088878686858584848383828282828181CC
:1047B00081818181818181818182828283838384DD
:1047C0008485858686878888898A8B8C8C8D8E8F58
:1047D00090919294959697989A9B9C9E9FA0A2A345
:1047E000A5A6A8A9ABADAEB0B2B3B5B7B9BABCBEB9
:1047F000C0C2C4C6C8C9CBCDCFD1D3D5D8DADCDED0
:10480000E0E2E4E6E8EAEDEFF1F3F5F7F9FCFE00AB
:104810000000000000000000800100000001027C98
:1048200001227F0205080B0D101315181B1E2023F3
:1048300025282B2D303235373A3C3F414346484AF4
:104840004C4F51535557595B5D5F606264666769B1
:104850006A6C6D6F707172747576777879797A7B1E
:104860007C7C7D7D7E7E7E7F7F7F7F7F7F7F7F7E66
:104870007E7E7D7D7C7C7B7B7A79787776757473A0
:1048800072716F6E6C6B6A68666563615F5E5C5ABD
:1048900058565452504D4B49474442403D3B3836A0
:1048A00034312E2C292724211F1C191714110E0C0A
:1048B00009060401FFFCF9F7F4F1EFECE9E6E4E1A5
:1048C000DEDCD9D6D4D1CFCCCAC7C5C2C0BEBBB935
:1048D000B7B5B2B0AEACAAA8A6A4A2A09F9D9B9962
:1048E0009896959392918F8E8D8C8B8A89888786E6
:1048F0008585848383838282828181818181818194
:1049000081828282838384848586878788898A8B53
:104910008D8E8F909293949697999B9C9EA0A2A324
:10492000A5A7A9ABADAFB2B4B6B8BBBDBFC2C4C634
:10493000C9CBCED0D3D6D8DBDDE0E3E5E8EBEEF0B3
:10494000F3F6F8FBFE00000000000000300100005C
:10495000704900080000002048080000F802000824
:104960003C50000848080020A0470000D63400084A
:1049700012000100FF004EE91D38F7E71D390AA2B9
:10498000B139CAE11D3AAFA9763A9B92B13A1BA858
:10499000F13A72C91D3B0AA8473B3E6E763B1C0D9F
:1049A000953B0255B13BB70DD03B0C36F13B5C66F5
:1049B0000A3C30681D3CC59F313C540C473C09AD56
:1049C0005D3C0481753CAE43873C8C5F943C9B13FB
:1049D000A23C555FB03C2A42BF3C8ABBCE3CDACAFF
:1049E000DE3C7D6FEF3C6754003D123B093D686B38
:1049F000123D0CE51B3DA3A7253DCCB22F3D230660
:104A00003A3D43A1443DC3834F3D38AD5A3D331D2C
:104A1000663D44D3713DF6CE7D3DEA07853DB34A00
:104A20008B3D97AF913D5836983DB5DE9E3D6CA8C5
:104A3000A53D3B93AC3DDD9EB33D0CCBBA3D82170B
:104A4000C23DF783C93D2110D13DB7BBD83D6C862F
:104A5000E03DF36FE83DFE77F03D3F9EF83D32715B
:104A6000003E0EA2043E8AE1083E7D2F0D3EBB8B28
:104A7000113E1AF614FF153E6E6E1A3E8BF41E3E62
:104A80004488233E6D29283ED7D72C3E5493313E8F
:104A9000B65B363ECE303B3E6B12403E5D00453E3F
:104AA00075FA493E80004F3E4E12543EAB2F593EA0
:104AB00066585E3E4C8C633E2ACB683ECB146E3EFD
:104AC000FB68733E86C7783E38307E3E6DD1813EAE
:104AD0009B8F843E8B52873E231A8A3E46E68C3E4D
:104AE000D9B68F3EC08B923EDF64953E1B42983E06
:104AF00056239B3E75089E3E5BF1A03EEBDDA33E38
:104B000009CEA63E96C1A93E77B8AC3E8EB2AF3E66
:104B1000BDAFB23EE7AFB53EEFB2B83EB6B8BB3EB2
:104B200020C1BE3E0DCCC13E60D9C43EFBE8C73EAD
:104B3000C0FACA3E900ECE3E4C24D13ED73BD43E66
:104B40001355D73EDF6FDA3E1E8CDD3EB2A9E03E44
:104B50007AC8E33E59E8E63E3009EA3EDF2AED3EF8
:104B6000494DF03E4D70F33ECD93F63EABB7F93E66
:104B7000C6DBFC3EFF00FF003F1D92013F2B2403DC
:104B80003F19B6043FD947063F5CD9073F906A09F1
:104B90003F68FB0A3FD38B0C3FC31B0E3F27AB0F75
:104BA0003FF139113F10C8123F7755143F14E215F9
:104BB0003FDA6D173FB8F8183FA0821A3F820B1CEE
:104BC0003F50931D3FF9191F3F709F203FA523229F
:104BD0003F88A6233F0C28253F22A8263FB9262838
:104BE0003FC5A3293F351F2B3FFC982C3F0A112EB0
:104BF0003F52872F3FC5FB303F556E323FF3DE33C8
:104C00003F904D353F20BA363F9424383FDD8C39F4
:104C10003FEFF23A3FBA563C3F33B83D3F4A173F69
:104C20003FF273403F1ECE413FC125433FCD7A4402
:104C30003F36CD453FED1C473FE669483F15B44937
:104C40003F6DFB4A3FE03F4C3F63814D3FE9BF4E24
:104C50003F65FB4F3FCD33513F1269523F2B9B5372
:104C60003F0ACA543FA5F5553FEF1D573FDD425857
:104C70003F6564593F7A10E6825A3F119D5B3F21A0
:104C8000B45C3F9DC75D3F7DD75E3FB4E35F3F3877
:104C9000EC603F00F1613F02F2623F33EF633F8916
:104CA000E8643FFCDD653F81CF663F10BD673F9FF5
:104CB000A6683F248C693F996D6A3FF24A6B3F2991
:104CC000246C3F35F96C3F0DCA6D3FAA966E3F03C9
:104CD0005F6F3F1123703FCCE2703F2D9E713F2DDF
:104CE00055723FC407733FECB5733F9E5F743FD36B
:104CF00004753F86A5753FAF41763F4AD9763F4F51
:104D00006C773FBAFA773F8484783FA909793F24CA
:104D10008A793FEF057A3F057D7A3F63EF7A3F045A
:104D20005D7B3FE3C57B3FFC297C3F4C897C3FCFCB
:104D3000E37C3F81397D3F5F8A7D3F67D67D3F942D
:104D40001D7E3FE55F7E3F569D7E3FE6D57E3F92CE
:104D5000097F3F58387F3F37627F3F2C870810120A
:104D6000A77F3F56C27F3F88D87F3FCCE97F3F2255
:104D7000F60C3007FD7F3F0000800821102118212C
:104D800020212821303138426248215021582160A9
:104D9000216821702178218021882190219821A0EB
:104DA00021A821B021B821C021C821D021D821E0DB
:104DB00021E821F021F825002508251025182520B7
:104DC000252825302538254025482550255825609B
:104DD000256825702578258025882590259825A08B
:104DE00025A825B025B825C025C825D025D825E07B
:104DF00025E825F025F82900290829102918292057
:104E0000292829302938294029482950295829603A
:104E1000296829702978298029882990299829A02A
:104E200029A829B029B829C029C829D029D829E01A
:104E300029E829F029F82D00032D08032D10032D52
:104E400018032D20032D28032D30032D38032D406A
:104E5000032D48032D50032D58032D60032D6803A7
:104E60002D70032D78032D80032D88032D90032DA5
:104E700098032DA0032DA8032DB0032DB8032DC03A
:104E8000032DC8032DD0032DD8032DE0032DE803F7
:104E90002DF0032DF8032D00042D08042D10042DF2
:104EA00018042D20042D28042D30042D38042D4005
:104EB000042D48042D50042D58042D60042D680441
:104EC0002D70042D78042D80042D88042D90042D40
:104ED00098042DA0042DA8042DB0042DB8042DC0D5
:104EE000042DC8042DD0042DD8042DE0042DE80491
:104EF0002DF0042DF8042D00052D08052D10052D8D
:104F000018052D20052D28052D30052D38052D409F
:104F1000052D48052D50052D58052D60052D6805DA
:104F20002D70052D78052D80052D88052D90052DDA
:104F300098052DA0052DA8052DB0052DB8052DC06F
:104F4000052DC8052DD0052DD8052DE0052DE8052A
:104F50002DF0052DF8052D00062D08062D10062D27
:104F600018062D20062D28062D30062D38062D403A
:104F7000062D48062D50062D58062D60062D680674
:104F80002D70062D78062D80062D88062D90062D75
:104F900098062DA0062DA8062DB0062DB8062DC00A
:104FA000062DC8062DD0062DD8062DE0062DE806C4
:104FB0002DF0062DF8062D00072D08072D10072DC2
:104FC00018072D20072D28072D30072D38072D40D5
:104FD000072D48072D50072D58072D60072D68070E
:104FE0002D70072D78072D80072D88072D90072D10
:104FF00098072DA0072DA8072DB0072DB8072DC0A5
:10500000072DC8072DD0072DD8072DE0072DE8075D
:105010002DF0072DF807423001123104123204122C
:10502000330412340412350403113600011E013119
:0C5030000662100D7324F4230000000041
:040000050800019559
:00000001FF
